:020000040800F2
:10000000C0070020050100080D0100080F010008CD
:10001000110100081301000815010008000000008C
:1000200000000000000000000000000017010008B0
:1000300019010008000000001B01000895210008BC
:100040001F0100081F0100081F0100081F01000810
:100050001F0100081F0100081F0100081F01000800
:100060001F0100081F0100081F0100081F010008F0
:100070001F0100081F0100081F0100081F010008E0
:100080001F0100081F0100081F0100081F010008D0
:100090001F0100081F0100081F0100081F010008C0
:1000A0001F0100081F0100081F0100081F010008B0
:1000B0001F0100081F0100081F0100081F010008A0
:1000C0001F0100081F0100081F0100081F01000890
:1000D0001F010008852800081F0100081F010008F3
:1000E0001F0100081F0100081F010008DFF810D0E1
:1000F00000F014FD004800477D4A0008AFF300807F
:10010000C00700200648804706480047FEE7FEE794
:10011000FEE7FEE7FEE7FEE7FEE7FEE7FEE7FEE7B7
:10012000A5210008ED000008034611F8012B00F896
:10013000012B002AF9D118467047F0B480EA010279
:10014000D40F4200B2EB410F02D2024608461146DC
:100150004A0042D0C30DDDB2C1F3C752AD1A202D03
:1001600035DAC1F3160141F4000204B15242C5F17F
:10017000200602FA06F12A411044B3EBD05F23D0E7
:10018000C4B1012DA0EBC35009DCF0BC4FF000421C
:1001900002EAC352DBB200F5000000F0D8BB400019
:1001A00000F1807000EBC350A0F1807040EAD17084
:1001B000490009E0490841EAC071A0EBC35000F5CD
:1001C0000000400800EBC350F0BC00F0B7BB614238
:1001D000012202EB4101001BF6E7F0BC704781F001
:1001E0000041AAE780F00040A7E780EA010210B5CD
:1001F00002F00043400022D04A001FD0010E01EB64
:100200001261C0F35600C2F3560240F4000042F4FB
:100210000002A0FB022000047F39140400D0401C1F
:1002200050EA124001D44000491EC2B20C0604EB51
:10023000D010401C4008802A02D003E0002010BDEE
:1002400020F00100002900DA0020184310BD30B46E
:1002500080EA010202F0004530F0004221F0004047
:1002600013D090B1C30DD40DC2F31601C0F3160024
:10027000E41A41F4000140F400027D34914201D3BC
:10028000641C00E04900002C02DA30BC00207047FA
:100290004FF400000023914201D3891A0343400820
:1002A0004FEA4101F7D151B1914202D14FF00041E3
:1002B00005E002D24FF0010101E06FF0010103EB14
:1002C000C450284430BC00F039BB2DE9FE4F8046B5
:1002D00081EA0300C00F0C46009021F0004123F09A
:1002E0000045B8EB0200A94105D2404621469046A0
:1002F0001C460B46024623F00040104347D0270D12
:10030000C7F30A00C3F30A510290401A0190402833
:100310006BDAC3F3130040F4801B0098924620B1BF
:100320000023D2EB030A63EB0B0B01985946C0F193
:100330004002504600F083FA06460D4650465946A4
:10034000019A00F09BFA10EB08006141002487EA53
:10035000115284EAE7731A4340D0009A62B3019ABB
:10036000012A4FEA075215DC001B61EB02014FF036
:10037000004202EA0752CDE90042001C41F580111B
:1003800032462B4600F020FB03B0BDE8F08F40461C
:100390002146F9E7001B61EB0201001C41F58013C7
:1003A00000185B412018A2F5001747EB030140EA53
:1003B000D570B6196D4111E06D084FEA360645EA71
:1003C000C0754FEA0752001B61EB0201001C41F5AA
:1003D000801149084FEA30000019514132462B463E
:1003E00003B0BDE8F04F00F0E0BA009801224000F1
:1003F0000023D0EB020263EBE073009821464FEA42
:10040000E074B8EB000061EB0401E9E783F000431E
:100410005BE781F0004158E72DE9FE4F81EA0304D4
:1004200004F0004421F0004100944FF0000B23F051
:10043000004350EA01045ED052EA03045BD0C3F3E8
:100440000A54C1F30A552C44A4F2F3340194A0FBDE
:100450000254C1F3130141F48011C3F3130343F4B5
:10046000801301FB024400FB034E840A970A44EA0E
:10047000815447EA8357A4FB076802958D0A05FB60
:1004800007854FEA932C04FB0C542705029D4FEA85
:10049000065847EA1637B5EB08056EEB070C870ED2
:1004A000920E47EA811742EA8312A7FB0201B6EBDC
:1004B0000B0164EB00042B0D43EA0C335E1844EB94
:1004C0001C50DA465146E7FB0201C5F313044FEA1C
:1004D0000B3343EA14534FEA0432019C43EA060308
:1004E000A4F10C040294009CCDE900B400F06CFA75
:1004F00003B0BDE8F08F00200146F9E72DE9F04D8B
:1005000081EA030404F0004B21F0004514464FF04B
:10051000000A23F0004150EA050220D054EA01020B
:100520001DD0C5F30A570246C5F31303C1F31300E8
:10053000C1F30A5640F4801543F48013A7EB060874
:10054000101BD64608F2FD3873EB050002D308F104
:10055000010801E092185B41B8F1000F03DA0020B6
:100560000146BDE8F08D00204FF480110646844618
:100570000EE0171B73EB050705D3121B63EB050396
:1005800006434CEA010C49084FEA300092185B41DF
:1005900050EA0107EDD152EA030012D082EA0400CA
:1005A00083EA0501084305D0101BAB4106D20122A6
:1005B000002306E000224FF0004302E06FF001024A
:1005C00053101AEB06004CEB085110EB0A0041EBFC
:1005D0000B01BDE8F04D00F0E8B9C10F80EAE07012
:1005E0000844CA079623002100F0B1B996230022DF
:1005F000114600F0ACB90EB5C10F80EAE0700844B6
:10060000CA07002140F233438DE80E000A460B462C
:1006100000F0DAF903B000BD0EB540F233410291AB
:100620000021CDE900110A460B4600F0CDF903B0D8
:1006300000BD20F00040C10DC0F3160040F40000E2
:100640007F2901DA00207047962903DCC1F1960169
:10065000C840704796398840704770B5C1F30A5258
:1006600001F000450024C1F3130140F2FF3341F4CF
:1006700080119A4201DA002070BD40F233439A4261
:10068000A2F2334203DC524200F0E8F800E090406E
:100690002C43F1D0404270BDC1F30A5210B5C1F3F2
:1006A000130140F2FF3341F480119A4201DA002035
:1006B00010BD40F233439A42A2F2334203DC52426D
:1006C00000F0CCF810BD904010BD00F0004230F0BA
:1006D00000400AD0C10D01F56071C0F3160042EA76
:1006E0000151C2084007114370470020014670477E
:1006F00030B5041E71F1000404DB4FF000444042A9
:1007000064EB0101141E73F1000405DB1C464FF07D
:100710000043524263EB04038B4208BF824230BD68
:1007200030B5041E71F1000404DB4FF00044404278
:1007300064EB0101141E73F1000405DB1C464FF04D
:100740000043524263EB0403994208BF904230BD1C
:1007500001F0004330B421F0004150EA010206D01C
:100760000A0DA2F56072C1F31301002A02DC30BC4D
:1007700000207047440F44EAC104C100E01830BCB7
:1007800000EBC25000F0DAB8002801DBC0F10040F5
:10079000002901DBC1F1004181427047002801DBE3
:1007A000C0F10040002901DBC1F1004188427047DF
:1007B00030B50B46014600202022012409E021FA31
:1007C00002F59D4205D303FA02F5491B04FA02F52E
:1007D0002844151EA2F10102F1DC30BD2DE9F05FC5
:1007E0000546002092469B468846064681464024A0
:1007F0001BE0284641464746224600F02FF8534664
:100800005A46C01A914110D311461846224600F0AC
:1008100016F82D1A67EB01084F46224601200021E9
:1008200000F00DF817EB00094E41201EA4F1010461
:10083000DFDC484631462A464346BDE8F09F202A81
:1008400004DB203A00FA02F1002070479140C2F127
:10085000200320FA03F3194390407047202A04DB59
:10086000203A21FA02F00021704721FA02F3D04029
:10087000C2F120029140084319467047202A06DB46
:10088000CB17203A41FA02F043EAE07306E041FA5E
:1008900002F3D040C2F1200291400843194670474C
:1008A0000FB4002300B589B00CA900910B996FF02B
:1008B0000042CB601E4B06931E4B07930423CDE9E9
:1008C00001321D4A089202466B46002000F0D2F920
:1008D00009B05DF814FB70B586B006464FF0FF30E6
:1008E0000091CDE90101002015460C4604903246E6
:1008F000694604A8FFF7D4FF02460498211825B1E1
:1009000008B1084600E020462860049800280DD071
:10091000002A02DD0098884208D0081B0094CDE927
:1009200001043246694604A8FFF7BAFF06B070BD5D
:10093000AD0E0008CB0E0008410B00080029A8BF2F
:100940007047401C490008BF20F00100704710B4F8
:10095000B0FA80FC00FA0CF050EA010404BF10BCAD
:10096000704749B1CCF1200421FA04F411FA0CF1DA
:1009700018BF012121430843A3EB0C01CB1D4FEA13
:1009800000614FEA102042BF002010BC704700EB0E
:10099000C35010440029A4BF10BC7047401C49003C
:1009A00008BF20F0010010BC704710B5141E73F191
:1009B000000408DA401C41F1000192185B411A431F
:1009C00001D120F0010010BD2DE9F04D92469B466B
:1009D00011B1B1FA81F202E0B0FA80F22032904611
:1009E000FFF72DFF04460F4640EA0A0041EA0B01DB
:1009F00053465A46084313D0114653EA010019D012
:100A0000C8F140025046FFF729FF05460E46504602
:100A100059464246FFF713FF084305D0012004E082
:100A200020463946BDE8F08D0020054346EAE076D1
:100A30002C4337430A986305E40AA0EB0800002220
:100A4000FD0A44EA47540A3002D500200146E9E78E
:100A5000010510196941DDE9084500196941BDE842
:100A6000F04DA2E72DE9FE4FC3F30A5701F0004510
:100A70000024C1F30A56C3F31303C1F3130143F473
:100A8000801312EB020AA64641F48011009543EB55
:100A9000030CA7F1010B16E0B0EB0A0061EB0C01AF
:100AA000071E71F1000707DA4FF00008D0EB0800CD
:100AB00085F0004568EB0101171A73EB0107EBD3D2
:100AC000761E001849415E45F6DA50EA010209D067
:100AD000CDE900E5002213460296FFF775FF03B04B
:100AE000BDE8F08F20460099F9E7C1F30A52C1F33F
:100AF000130140F2FF3341F480119A4202DA0020E0
:100B00000146704740F233439A42A2F2334202DC7C
:100B10005242FFF7A3BEFFF792BE0000064C074DFE
:100B200006E0E06840F0010394E8070098471034BD
:100B3000AC42F6D3FFF7DEFA2859000848590008FE
:100B4000C0B24FF4F05100F0E9B900002DE9FF4FB9
:100B5000087883B09946FF2805D0491C2D2804D079
:100B60000024002008E000200BE00124F9E700EB5E
:100B7000800003EB4000491C0B78FF2BF7D104B138
:100B8000404200230293147819461D462D2C01D0B3
:100B90002B2C04D1521C2D2C13D000240294AA46D5
:100BA0001478FF2C0FD00A25A3FB057801FB0581E3
:100BB0004FF0000C03FB0C11521CE3194AEB01012E
:100BC000EEE70124EAE7814453EA010002D019F577
:100BD000C87F06DA03980021C0E9001107B0BDE81C
:100BE000F08F0025AE4E2F46DFF8B882184600F091
:100BF000A9F9CDE90001B9F1000002DAC9F1000458
:100C000000E004460023A74A1AEB030B42EB045A08
:100C100012E0E00707D02A46334638464146FFF740
:100C2000FBFB074688462A46334610461946FFF71F
:100C3000F3FB05460E466410002CEAD1DDE9000105
:100C4000B9F1000F5A46534606DAFFF757FC3A4609
:100C50004346FFF753FC05E0FFF7DEFB3A46434609
:100C6000FFF7DAFB029A0AB181F00041039AC2E968
:100C70000001B3E72DE9FF4F1F468DB0D7E90146CC
:100C80004FF0FF382E2045464FF000090B90B96910
:100C90006D1C0E988847396A824688470028F6D12D
:100CA000BAF1FF3F0AD024F4D064002E11DDBAF16E
:100CB0002B0F08D0BAF12D0F0BD102E0404611B036
:100CC0008DE744F48064B9696D1C0E9888478246AC
:100CD000761E6946600501D52D2000E02B208DF899
:100CE000000001F1010B0DF1200809E0B9696D1C4C
:100CF0000E98884782460F9844F40074761E05606B
:100D0000002E02DDBAF1300FF0D00B998A453ED1AA
:100D100044F0800406E00F99681CA9F1010944F42D
:100D200000740860B9696D1C761E0E98884782466B
:100D30003028F0D02BE00B998A4505D1200603D44A
:100D400044F08004761E18E0504602F05FF808B3C5
:100D50000DF11301761E44F400748B4508D2AAF1FC
:100D600030000BF8010B200607D5A9F1010003E0C4
:100D7000200602D409F101008146A00502D50F9991
:100D8000681C0860B9696D1C0E9888478246002E61
:100D9000D1DC53E0002E51DDBAF1650F02D0BAF17B
:100DA000450F4BD1A00549D5B9696D1C24F4407499
:100DB000761E0E9888478246002E0CDD2B2804D024
:100DC000BAF12D0F07D144F48074B9696D1C0E98E7
:100DD00088478246761EE00501D52D2100E02B21B3
:100DE00008F8011BCDF82C8021E00DF12901761EB9
:100DF00044F4007488450CD2AAF1300010F0FF00D2
:100E000088F8000002D10B99884509D908F101083A
:100E100006E0E00501D5244801E042F20F7081466A
:100E2000B9696D1C0E98884782460F980560002EA0
:100E300004DD504601F0EAFF0028D6D1F9690E988A
:100E40008847FF208BF8000088F8000000200690FB
:100E500007904B466A4608A906A8FFF777FEA0054B
:100E600002D46FF001002AE714F0240F0AD0E00743
:100E700014D1DDE906123868031D3B600068C0E943
:100E800000120BE0DDE90601FFF762FC0146E00716
:100E900004D13868021D3A600068016028460EE7F8
:100EA000000014400000F03FF1D8FFFF426842B15B
:100EB000016811F8013B23B1521EC0E90012184627
:100EC00070470121C160881E704742685AB1C368EB
:100ED000016843B983688B4205D0491E521CC0E9A2
:100EE0000012002070474FF0FF30704770B521F0BE
:100EF000004303430CD0C1F30A550024D5EB04058D
:100F000064EB0403D617AD1AB34102DB002001469F
:100F100070BD201841EB025170BD00007F2801D93F
:100F2000002208E0064A02EB5002C007127800D106
:100F3000120902F00F0201209040084070470000A3
:100F4000E85800080EB540F2334202920022CDE983
:100F500000221346FFF738FD03B000BD21B18268BF
:100F600042F00102826003E0826822F001028260A6
:100F70007047000010B504461248844208D1012190
:100F8000401500F01BFF0021601500F017FF17E06F
:100F90000D48844208D10121001500F00FFF002107
:100FA000201500F00BFF0BE00848844208D1012116
:100FB000C80300F003FF00214FF4004000F0FEFEE4
:100FC00010BD00000024014000280140003C014009
:100FD000014600208A6802F004020AB1012000E004
:100FE000002070470146C86C80B27047024600205E
:100FF00013680B400BB1012000E000207047014650
:1010000000208A6802F008020AB1012000E00020F6
:101010007047000030B502460020002350680F4C96
:1010200020400D790C6844EA052420435060906804
:101030000B4C2040D1E902542C434D7944EA45043D
:1010400020439060D06A20F470000C7C641EE4B2EF
:10105000234340EA0350D06230BD0000FFFEF0FFA2
:10106000FDF7F1FFF0B504460D4600200021092DE3
:1010700011DDE068A5F10A0606EB4607072606FA29
:1010800007F18843A5F10A0606EB460603FA06F1C6
:101090000843E0600CE0206905EB4507072606FAE7
:1010A00007F1884305EB450603FA06F10843206182
:1010B000072A0FDA606B561E06EB86071F2606FA14
:1010C00007F18843561E06EB860605FA06F108432B
:1010D000606322E00D2A0FDA206BD61F06EB86072D
:1010E0001F2606FA07F18843D61F06EB860605FA87
:1010F00006F10843206310E0E06AA2F10D0606EB5A
:1011000086071F2606FA07F18843A2F10D0606EBB3
:10111000860605FA06F10843E062F0BD816841F0F9
:1011200008018160704721B1826842F4A0028260A8
:1011300003E0826822F4A00282607047816841F077
:1011400004018160704700002DE9FF5F82460020A6
:10115000CAF8F000CAF8F400CAF8F80083462AE09A
:101160009AF8D80002F022FA0446DAF8F010FEF7F6
:10117000E4FFCAF8F0009AF8DC0002F017FA04461F
:10118000DAF8F410FEF7D9FFCAF8F4002749DAF8C4
:10119000E00088420AD09AF8E00002F007FA04461C
:1011A000DAF8F810FEF7C9FFCAF8F800012003F0DA
:1011B000FDF80BF1010BBBF57A7FD1DB1C49DAF8A6
:1011C000F000FFF744F8CAF8F0001949DAF8F40023
:1011D000FFF73DF8CAF8F4001449DAF8E000884255
:1011E00006D01349DAF8F800FFF731F8CAF8F8002A
:1011F000DAF8F800FFF769FA04460D46DAF8F40069
:10120000FFF763FA06460F46DAF8F000FFF75DFADB
:10121000804642460B460AF1040106A0CDE900676C
:10122000CDE9024501F046FCBDE8FF9FC7CFFFFFB7
:1012300000007A4425733A6F66667365745F69616E
:101240003A252E34662C6F66667365745F69623A60
:10125000252E34662C6F66667365745F69633A2564
:101260002E34662E0D0A000008B501211D2000F065
:1012700095FD0121144800F0B9F84FF40050ADF885
:10128000000010208DF8030001208DF8020069464F
:101290000E4800F01FF84FF400510C4800F0EEF833
:1012A0004FF40270ADF8000010208DF8030001200B
:1012B0008DF802006946064800F00CF84FF4027100
:1012C000034800F0DBF808BD0002300000100140C8
:1012D000000C01402DE9F0410246002500260020C7
:1012E00000230024002791F803C00CF00F0591F8AB
:1012F00003C00CF0100CBCF1000F03D091F802C039
:101300004CEA050591F800C0BCF1000F31D014681B
:1013100000202BE04FF0010C0CFA00F3B1F800C0F4
:101320000CEA03069E4220D183004FF00F0C0CFA0A
:1013300003F7BC4305FA03FC4CEA040491F803C02C
:10134000BCF1280F06D14FF0010C0CFA00FCC2F8DA
:1013500014C00AE091F803C0BCF1480F05D14FF06A
:10136000010C0CFA00FCC2F810C0401C0828D1D3B4
:101370001460B1F800C0BCF1FF0F34DD54680020E8
:101380002EE000F1080C4FF0010808FA0CF3B1F858
:1013900000C00CEA03069E4221D183004FF00F0CDF
:1013A0000CFA03F7BC4305FA03FC4CEA040491F879
:1013B00003C0BCF1280F05D100F1080C08FA0CF8A5
:1013C000C2F8148091F803C0BCF1480F07D100F1B6
:1013D000080C4FF0010808FA0CF8C2F81080401C05
:1013E0000828CED35460BDE8F0810000F0B50A466D
:1013F000002300240021002500F00046B6F1004F34
:1014000002D11D4EF16901E01B4E7168C0F3034526
:1014100083B200F44016B6F5401F08D121F0706188
:10142000154E766826F07066134F7E6012E000F469
:101430008016B6F5801F06D1032606FA05F4A143EF
:1014400041F0706106E0460D360103FA06F6B1433D
:1014500041F0706122B1460D360103FA06F63143C0
:1014600000F00046B6F1004F02D1034EF16101E0F9
:10147000014E7160F0BD0000000001404161704705
:101480000161704700B585B00121082000F086FC9D
:101490000121880500F062FC4FF44060ADF81000B7
:1014A0001C208DF8130003208DF8120004A91348A6
:1014B000FFF710FF124800F033F80020ADF80400E9
:1014C0004BF6FF70ADF806000020ADF808004FF4B1
:1014D0008060ADF80A000001ADF80C0009480090EA
:1014E0006946074800F044F80121054800F00CF86F
:1014F0000121034800F030F805B000BD000C0140A8
:1015000000580040801A060021B1028842F0010212
:10151000028004E002884FF6FE731A400280704792
:1015200010B504460B48844209D10121480500F05A
:1015300025FC00214FF4001000F020FC08E0012100
:10154000880500F01BFC00214FF4800000F016FC21
:1015500010BD00000054004021B1028842F4007226
:10156000028004E002884FF6FF531A400280704761
:101570002DE9F04385B004460D460026B146042708
:10158000DFF8CC80A6884FF6C0700640684600F0B1
:1015900025FCDDF808802F48B8FBF0F01FFA80F931
:1015A00046EA0906A68020884FF6FE710840208092
:1015B00000262949286888420CD828684000B8FBD2
:1015C000F0F087B2042F00DA04273E4309F101004E
:1015D000208427E0E8884BF6FF71884206D128680E
:1015E00000EB4000B8FBF0F087B209E0286800EBA0
:1015F000C00101EB0010B8FBF0F087B247F4804760
:10160000C7F30B0008B947F0010747F40040064351
:101610004FF4967009FB00F04FF47A7190FBF1F0F3
:10162000401C2084A683208840F00100208026886A
:101630004FF6F5300640A88869890843064326809E
:10164000A88929890843208105B0BDE8F0830000FE
:1016500000127A0040420F00A08601002DE9F041FF
:1016600004464FF6FF75208840F48070208005E026
:10167000281EA5F1010501D1BDE8F081A08A00F086
:1016800001000028F4D06C2020824FF6FF7504E0A2
:10169000281EA5F1010500D1EEE7A08A00F00200A6
:1016A0000228F5D1268B0C20208200BFA08A00F0F2
:1016B00004000428FAD1208840F4006020804FF60E
:1016C000FF75208840F48070208004E0281EA5F17A
:1016D000010500D1D0E7A08A00F001000028F5D074
:1016E0004FF6FF756D20208204E0281EA5F101054C
:1016F00000D1C1E7A08A00F002000228F5D172B63D
:10170000268B20884FF6FF310840208062B600BF4C
:10171000A08A00F004000428FAD172B60121204604
:10172000FFF71AFF208AC7B262B6208A00F0FF08CE
:1017300000BF208800F40070B0F5007FF9D0208849
:1017400040F48060208020884FF2FF7108402080A4
:10175000701C86B208EB072080B28DE710B5002020
:1017600016490880012048800820888000201449FC
:1017700008800120488008208880022011490880C4
:1017800001204880082088800C4800F0D5FB4FF4E9
:1017900080400D49C1F81C010CA001F08BF93220EA
:1017A00002F004FEFFF76EFE4FF480500B49C1F8C3
:1017B0001C010BA001F07EF910BD00001E000020EE
:1017C000240000202A0000205C0100204D313A4115
:1017D0005335303437500D0A000000008C020020D1
:1017E0004D323A4153353630300D0A002DE9F04F75
:1017F00089B004460E4691469A46DDF848B044F852
:10180000D8AFC4F804B01398A0604846FEF75DFF57
:10181000CDE904013046FEF758FF07463A460B462D
:1018200000201949FEF76AFECDE90201DDE9042333
:10183000FEF764FECDE90601FEF78AFF0546E56086
:1018400085F00040206165616069FEF73EFF074654
:1018500088462069FEF739FFCDE90601E068D83CEB
:10186000FEF733FFCDE90278CDE90401DDE9060199
:10187000CDE90001211D05A0DDE9042301F01AF9DD
:1018800009B0BDE8F08F00000000F03F25733A6713
:1018900061696E5F613A252E32662C6761696E5F01
:1018A000623A252E32662C6761696E5F633A252E97
:1018B00032662E0D0A00000010B50446D834D4E973
:1018C000011254F8D80902F0D3FC2046FFF73CFC83
:1018D00010BD000010B504460A4860620021A162F4
:1018E00001F09CFAE062074820630021616301F087
:1018F00095FAA0630348E0630021216401F08EFAA9
:10190000606410BDCDCC4C3D2DE9F84F04460D462A
:1019100001F084FA8046A168A8EB0100FEF766FE9C
:1019200082461B49FEF761FC8146C4F8088000210D
:101930004846FEF729FF02D2DFF8589008E0164922
:101940004846FEF72BFF03D265602846BDE8F88FB6
:1019500049462068FEF7F1FB824651462068FEF7B3
:1019600076FC064631464FF07E50FEF738FC834643
:101970002946FEF73AFC824630466168FEF735FCA0
:1019800051460090FEF7D9FB074667603846DDE711
:10199000BD3786356F12833A9A99993E10B5044641
:1019A0000A2002F003FD204602F07CFFC4F8240167
:1019B0000020C4F82001C4F82C010A2002F0F6FC33
:1019C000204602F07FFDC4F8280110BD10B5044682
:1019D000211D17A001F06EF8D4E90210FEF7DEFE1B
:1019E00001D2A068E060A168A165A168E16794F8F0
:1019F000FC0018B9A020A168015102E0A020A16953
:101A00000151C420616901516079312805D14FF439
:101A100000710A48FFF734FD03E008210748FFF78B
:101A20002FFD01202060211D05A001F043F810BD0D
:101A300025733A20496E69740D0A0000000C0140BC
:101A400025733A20456E61626C6520647269766523
:101A5000722E0D0A0000000070B504460D461646B1
:101A600000212846FEF790FE03D0C4F8005184F808
:101A7000FE60204601F018FF204602F023FDC4F866
:101A80002801322002F092FC204603F075FCC4F8D5
:101A90000C01052002F08AFC204603F053FCC4F838
:101AA000040194F8FD00022802D1D4F80401206258
:101AB000C82002F07BFC70BD70B5002100230F220E
:101AC000C47804B3154C246804F4E064C4F5E064FD
:101AD000210AC1F10403CA40447804FA03F184786E
:101AE0001440214309010E4C0678A155047804F0F6
:101AF0001F050124AC4005786D11AD0005F1E0250E
:101B0000C5F8004109E0047804F01F050124AC4049
:101B1000044D0678761145F8264070BD0CED00E0C6
:101B200000E400E080E100E010B504462448C4F879
:101B300090008107942001510021982001512149F2
:101B40009C2001510021A4200151A8200151AC206A
:101B5000015101F063F9B02108511B48C4F8B400E9
:101B60000021B8200151BC200151C0200151C820E2
:101B70000151CC200151D020015101F04FF9D42165
:101B800008514FF07C50A0640021E164216561653B
:101B9000E1652166616601F041F9A0664FF07C5075
:101BA000E066002121676167A167802001518420E0
:101BB00001518820015101F031F98C21085110BDEB
:101BC000CDCCCC3E00007A440000A0412DE9F04F7E
:101BD00085B004460F4601F021F98146216AA9EB40
:101BE0000100FEF703FD54490390FEF7FEFA82461A
:101BF000C4F8209000215046FEF7C6FD09D9504692
:101C0000FEF763FD00224D4BCDE90201FEF788FD92
:101C100001D2DFF82CA139462068FEF7E6FA0490DD
:101C200038466169FEF789FA029051466068FEF70E
:101C3000DCFA4FF07C510090FEF7D7FA0190029940
:101C4000FEF7D3FA0390E169FEF777FA05462069BB
:101C500080F0004029460390FEF7A0FD03D22069E2
:101C600080F0004007E028462169FEF797FD01D289
:101C7000206900E02846054638466169FEF7AFFA5C
:101C80000290A168FEF7B1FA51460390FEF7DFFA21
:101C9000834629460498FEF750FA59460390FEF70A
:101CA0004CFA0646206980F0004031460390FEF76A
:101CB00075FD03D2206980F0004007E030462169BD
:101CC000FEF76CFD01D2206900E030460646002197
:101CD000E068FEF763FD28D23046A169FEF77FFA7F
:101CE00051460390FEF7B3FA80464046E168FEF79E
:101CF00055FD09D25146E068FEF777FA0390A169D5
:101D0000FEF71BFA064610E0E06880F0004041460E
:101D10000390FEF743FD08D25146E068FEF765FAEE
:101D20000390A169FEF75EFA0646E561A661676168
:101D3000304605B0BDE8F08FBD3786350000E03F86
:101D40006F12833A01460020034A506820F4404055
:101D500008435060704700000010024029B1064A55
:101D6000D2690243044BDA6104E0034AD269824338
:101D7000014BDA61704700000010024029B1064AA9
:101D800012690243044B1A6104E0034A1269824358
:101D9000014B1A61704700000010024029B1064A49
:101DA00092690243044B9A6104E0034A92698243B8
:101DB000014B9A61704700000010024029B1064AA9
:101DC000D2680243044BDA6004E0034AD2688243DB
:101DD000014BDA60704700000010024030B500216E
:101DE0000022002400232D4D6D6805F00C0121B167
:101DF000042905D0082923D105E0294D056022E0FA
:101E0000274D05601FE0254D6D6805F47012234DC8
:101E10006D6805F48034022505EB92421CB9214D12
:101E2000554305600BE01D4D6D6805F400351DB18F
:101E30001C4D5543056002E0194D5543056002E015
:101E4000174D056000BF00BF144D6D6805F0F0012F
:101E50000909154D6B5C0568DD4045600F4D6D68E7
:101E600005F4E061090A104D6B5C4568DD40856052
:101E70000A4D6D6805F46051C90A0B4D6B5C4568ED
:101E8000DD40C560054D6D6805F44041890B074D87
:101E90006B5CC568B5FBF3F5056130BD0010024011
:101EA00000127A0000093D00000000201000002010
:101EB00070B504460D46012C04D101021D48FFF700
:101EC000DDFA04E04FF480511A48FFF7D7FA2846AC
:101ED00000F0C2F8012C04D121021648FFF7D0FA15
:101EE00004E04FF480511348FFF7CAFA142002F0BF
:101EF00075FA012C04D121020E48FFF7BFFA04E065
:101F00004FF480510B48FFF7B9FA002000F0A4F815
:101F10000646012C04D121020648FFF7B1FA04E07D
:101F20004FF480510348FFF7ABFA142002F056FA41
:101F3000304670BD000C014010B586B0044601214A
:101F40000820FFF72BFF01218803FFF707FF4FF45D
:101F50008850ADF8140003208DF8160010208DF87D
:101F6000170005A91E48FFF7B5F94FF488511C4822
:101F7000FFF786FA4FF46040ADF8140003208DF8A7
:101F8000160018208DF8170005A91548FFF7A2F9CB
:101F90000020ADF800004FF48270ADF802004FF45D
:101FA0000060ADF804002088ADF806006088ADF848
:101FB00008004FF40070ADF80A00A088ADF80C00DE
:101FC0000020ADF80E000720ADF810006946054866
:101FD00000F024F80121034800F006F806B010BD17
:101FE000000C01400038004021B1028842F040025C
:101FF000028004E002884FF6BF731A4002807047E7
:102000000246002013890B400BB1012000E00020A4
:1020100070470146888970478181704710B500225A
:10202000028802F441520B884C8823438C88234356
:10203000CC8823430C8923434C8923438C89234335
:10204000CC8923431A430280838B4FF2FF742340D1
:1020500083830B8A038210BD70B50446002506E019
:10206000681C80B20546C82801DD002070BD022131
:102070000D48FFF7C5FF0028F2D021460A48FFF7B8
:10208000CBFF002506E0681C80B20546C82801DDAC
:102090000020EBE701210448FFF7B2FF0028F2D04F
:1020A0000148FFF7B6FFE1E70038004010B500F047
:1020B00001F810BD0CB50020019000903348006875
:1020C00040F480303149086000BF3048006800F4B7
:1020D000003000900198401C0190009818B90198B8
:1020E000B0F5A06FF1D12948006800F4003010B1BC
:1020F0000120009001E0002000900098012843D1C9
:102100002348006840F01000214908600846006834
:1021100020F0030008600846006840F002000860F4
:102120001A484068194948600846406848600846AF
:10213000406840F4806048600846406820F47C10A5
:1021400048600846406840F4E81048600846006867
:1021500040F08070086000BF0C48006800F000701C
:102160000028F9D00948406820F00300074948607A
:102170000846406840F00200486000BF03484068DD
:1021800000F00C000828F9D10CBD0000001002403E
:102190000020024002480068401C01490860704766
:1021A0001400002010B51348006840F001001149E8
:1021B000086008464068104908400E4948600846D3
:1021C00000680E4908400B4908600846006820F482
:1021D000802008600846406820F4FE0048604FF404
:1021E0001F008860FFF762FF4FF00060044908603D
:1021F00010BD0000001002400000FFF8FFFFF6FED7
:1022000008ED00E000B589B001210420FFF7C6FD0C
:1022100001210846FFF7A2FD0720ADF82000182095
:102220008DF8230003208DF8220008A92448FFF729
:1022300051F84FF0804000F0C9F80020ADF81400CC
:1022400040F29F50ADF818002020ADF81600002095
:10225000ADF81A0005A94FF0804000F0C1FA6020E7
:10226000ADF804000120ADF806000020ADF80A002A
:10227000ADF80C0001A94FF0804000F09BF901A9D6
:102280004FF0804000F0ECF901A94FF0804000F0E1
:1022900047FA0821C80600F0D9F90821C80600F05D
:1022A00031FA0821C80600F08BFA0121880700F0F6
:1022B00075F80121880700F07DF809B000BD000025
:1022C0000008014000B589B001210C20FFF766FD30
:1022D00001210220FFF742FDC020ADF820001820A8
:1022E0008DF8230003208DF8220008A92848FEF766
:1022F000F1FF0120ADF8200018208DF82300032005
:102300008DF8220008A92348FEF7E4FF224800F0D8
:102310005DF80020ADF8140040F29F50ADF81800B1
:102320002020ADF816000020ADF81A0005A91A48C3
:1023300000F056FA6020ADF804000120ADF8060068
:102340000020ADF80A00ADF80C0001A9124800F019
:1023500031F901A9104800F083F901A90E4800F0F5
:10236000DFF908210C4800F071F908210A4800F053
:10237000C9F90821084800F023FA0121064800F0B5
:102380000DF80121044800F015F809B000BD000067
:1023900000080140000C01400004004021B1028807
:1023A00042F08002028004E002884FF67F731A40F8
:1023B0000280704721B1028842F00102028004E0ED
:1023C00002884FF6FE731A400280704710B504462B
:1023D0006848844208D10121C014FFF7EFFC0021B6
:1023E000E014FFF7EBFCC4E0B4F1804F08D1012109
:1023F0000846FFF7C3FC00210120FFF7BFFCB8E04F
:102400005D48844208D101210220FFF7B7FC00217A
:102410000220FFF7B3FCACE05848844208D1012108
:102420000420FFF7ABFC00210420FFF7A7FCA0E08D
:102430005348844208D101210820FFF79FFC002166
:102440000820FFF79BFC94E04E48844208D101210C
:102450001020FFF793FC00211020FFF78FFC88E08D
:102460004948844208D101212020FFF787FC002140
:102470002020FFF783FC7CE04448844208D10121FE
:102480004014FFF79BFC00216014FFF797FC70E0FD
:102490003F48844209D10121C804FFF78FFC002185
:1024A0004FF40020FFF78AFC63E03A48844209D1E8
:1024B00001210805FFF782FC00214FF48010FFF78F
:1024C0007DFC56E03448844209D101214805FFF7DC
:1024D00075FC00214FF40010FFF770FC49E02F4815
:1024E000844208D101214020FFF748FC0021402010
:1024F000FFF744FC3DE02A48844208D101218020B6
:10250000FFF73CFC00218020FFF738FC31E0254834
:10251000844208D101218015FFF730FC0021A0156D
:10252000FFF72CFC25E02048844209D10121080452
:10253000FFF744FC00214FF48030FFF73FFC18E028
:102540001A48844209D101214804FFF737FC0021D1
:102550004FF40030FFF732FC0BE01548844208D1FD
:1025600001218804FFF72AFC00214FF48020FFF7A7
:1025700025FC10BD002C0140000400400008004074
:10258000000C0040001000400014004000340140E6
:10259000004C014000500140005401400018004030
:1025A000001C004000200040004001400044014069
:1025B0000048014070B5002400220023058C4FF62E
:1025C000FE7635400584028C8388048B4FF68F7528
:1025D0002C40B51E2C400D882C43751E2A400D89B9
:1025E0002A434D882A43144DA8420BD0134DA842CC
:1025F00008D0134DA84205D0124DA84202D0124D6A
:10260000A84213D14FF6F7752A404D892A434FF659
:10261000FB752A408D882A434FF6FF652B404FF605
:10262000FF552B408D892B43CD892B438380048319
:10263000CD888586028470BD002C014000340140A5
:102640000040014000440140004801400A4600218A
:10265000018B4FF6F7731940114301837047000057
:1026600070B5002400220023058C4FF6EF7635402C
:102670000584028C8388048B48F6FF752C404FF646
:10268000FF452C400D884FF6FF7606EA05252C43C2
:102690004FF6DF752A400D8906EA05152A434D8855
:1026A00006EA05152A43154DA84202D0144DA8424A
:1026B0001DD14FF67F752A404D894FF6FF7606EA09
:1026C00005152A434FF6BF752A408D8806EA051581
:1026D0002A434FF6FF352B404FF2FF752B408D8973
:1026E00006EA85052B43CD8906EA85052B438380C1
:1026F0000483CD880587028470BD0000002C014052
:10270000003401400A460021018B4FF2FF7319404B
:102710004FF6FF7303EA0223194301837047000059
:1027200070B5002400220023058C4FF6FF6635406B
:102730000584028C8388848B4FF68F752C404FF66E
:10274000FC752C400D882C434FF6FF552A400D890F
:102750004FF6FF7606EA05252A434D8806EA052549
:102760002A43154DA84202D0144DA8421DD14FF264
:10277000FF752A404D894FF6FF7606EA05252A4364
:102780004FF6FF352A408D8806EA05252A434EF686
:10279000FF752B404DF6FF752B408D8906EA051518
:1027A0002B43CD8906EA05152B4383808483CD888E
:1027B0008587028470BD0000002C01400034014078
:1027C0000A460021818B4FF6F7731940114381832C
:1027D0007047818670470187704781877047000086
:1027E000002202881D4B98420ED01D4B98420BD000
:1027F000B0F1804F08D01B4B984205D01A4B98423D
:1028000002D01A4B984204D14FF68F731A404B886E
:102810001A43174B984207D0164B984204D04FF6F4
:10282000FF431A40CB881A4302808B8883850B882C
:1028300003850A4B98420BD0094B984208D00E4BA7
:10284000984205D00D4B984202D00D4B984201D1D1
:102850000B7A03860123838270470000002C01401D
:10286000003401400004004000080040000C00401B
:1028700000100040001400400040014000440140AE
:102880000048014010B540F22551204800F050F8B2
:1028900000283AD01D4800F007F9C4B21C4800884F
:1028A00000F40040F8B91A48008800F4804090B164
:1028B0000A2C03D000201649088026E0144800881E
:1028C00040F400401249088000200988C1F30D013E
:1028D000104A505419E00D2C06D10D48008840F4E0
:1028E00080400B49088010E009480088C0F30D00C3
:1028F00008490C5406480088401C054908800846D1
:102900000088FF2801DD0020088010BD003801404C
:102910001C0000205C00002021B1828942F400529A
:10292000828104E082894DF6FF731A4082817047EC
:1029300070B50246002400230025002040F66A16E8
:10294000B14200D100BFC1F3421501F01F030126BF
:1029500006FA03F3012D02D19689334006E0022DD9
:1029600002D1168A334001E0968A33400C120126C8
:1029700006FA04F41688344013B10CB1012000E0CB
:10298000002070BDF0B5034600240026002500207D
:1029900040F66A17B94200D100BF1846C1F342148D
:1029A00001F01F06012707FA06F5012C01D10C30B2
:1029B00004E0022C01D1103000E014301AB1076895
:1029C0002F43076002E00768AF430760F0BD0000D7
:1029D0002DE9F04786B005460E460024A24600BF0A
:1029E000A1460027B08900B100BF2F462C8A4CF6C3
:1029F000FF700440F08804432C82AC894EF6F3103B
:102A00000440B08831890843718908430443AC818C
:102A1000AC8A4FF6FF400440B0890443AC8201A861
:102A2000FFF7DCF91F48874202D1DDF810A001E072
:102A3000DDF80CA0A88900F4004040B10AEBCA0000
:102A400000EB0A1031684900B0FBF1F807E00AEB2F
:102A5000CA0000EB0A1031688900B0FBF1F864206D
:102A6000B8FBF0F004012009642101FB1089A8895A
:102A700000F4004040B1322000EBC900B0FBF1F09F
:102A800000F00700044308E0322000EB0910642145
:102A9000B0FBF1F000F00F0004432C8106B0BDE85C
:102AA000F08700000038014001468888C0F3080024
:102AB000704700000FB4054B10B503A9044A0298F3
:102AC00000F0F0F910BC5DF814FB0000A944000808
:102AD00018000020490050EAC12018BF04204A0D08
:102AE00018BF40F0010040F2FF72B2EB515F08BF27
:102AF00040F00200012808BF052070472DE9F04191
:102B00004F1E00EBC7010446D1E9000115461E46E1
:102B100037F006020DD02A463346FDF77DFC7F1EB6
:102B200004EBC703D3E90023FDF7CFFB37F0060220
:102B3000F1D1022F25D0042F13D0062F18BFBDE8E6
:102B4000F0812A463346FDF767FCD4E90A23FDF7F6
:102B5000BCFB2A463346FDF75FFCD4E90823FDF7AA
:102B6000B4FB2A463346FDF757FCD4E90623FDF7AC
:102B7000ACFB2A463346FDF74FFCD4E90423FDF7AE
:102B8000A4FB2A463346FDF747FCD4E90223FDF7B0
:102B90009CFB2A463346FDF73FFCD4E90023BDE801
:102BA000F041FDF792BB0122FEF7A0B9FDF78DBB06
:102BB0000022134610461146FDF7A0BC024A002031
:102BC0001107FEF793B9000001FDFFFF01480068FF
:102BD000704700005800002002E008C8121F08C11A
:102BE000002AFAD170477047002001E001C1121F8E
:102BF000002AFBD1704700000149086070470000BF
:102C0000580000202DE9F04706463046FDF75DFDEF
:102C10000746134A134BFDF758FB0446FDF798FD92
:102C200081464846FDF751FD07460F4A0F4BFDF719
:102C300077FD08D24846FDF748FD07460A4A0B4B88
:102C4000FDF7E4FB02E04846FDF73FFD0446FDF7D3
:102C50007FFD8146484600F0CBFCBDE8F0870000D0
:102C6000F4D64354FB21F93FEA2E4454FB2119408A
:102C700070B504460D462846FDF7AFFC06462146D2
:102C8000FDF7B3FA70BD00002DE9FF5F82B00021AF
:102C9000DDE90430020DDDF840B0034318D044F6FE
:102CA0001050A2F2FF3242431514119801281FD090
:102CB000A5EB0B00401C5FEA000A4FF000064E4FE8
:102CC000DFF83891B046504615D5CAF1000413E03C
:102CD000119801244AA3012801D16FEA0B0102983F
:102CE000119AC0E90031C0E9024206B0BDE8F09F88
:102CF000CBF10000DFE704460021404A491842EBCF
:102D00000450CDE9001012E0E00707D032463B4600
:102D100040464946FDF780FB8046894632463B46A1
:102D200010461946FDF778FB06460F466410002C46
:102D3000EAD1DDE90401DDE90023BAF1000F06DA8A
:102D4000FDF76AFB42464B46FDF766FB05E0FDF7E3
:102D5000D5FB42464B46FDF7D1FB04460E4600220A
:102D6000284BFDF7DDFC03D84FF0FF30014607E0AC
:102D70000022254B20463146FDF7A7FAFDF7B5FEA8
:102D8000102409E0002C0ADB0A220023FDF726FDAF
:102D9000039B30321A55641E50EA0102F2D1641CC2
:102DA000039AC4F111031444119A012A03D0012299
:102DB00008430DD10AE0084304D000204FF0110B66
:102DC000119072E7A3EB0B056D1E0DE05B4504DD72
:102DD0004FF0000205F1010504E003DA4FF00002B4
:102DE000A5F10105002AECD002981199C0E9023141
:102DF000C0E9004579E70000000014400000F03F02
:102E0000300000000000F0430000E03F30380A28A6
:102E100001D20120704700207047000000BF0A481F
:102E200001684FF0E0208269074800688142F6D1CE
:102E30000648801A4823B0FBF3F001EB4103C3EBD3
:102E4000C11300EBC30070471400002040190100BB
:102E50002DE9F04706463046FDF737FC07460F4A96
:102E60000F4B01F0D7FA0446FDF772FC81460021B2
:102E70004846FDF793FC03D84846FDF726FC07E0DB
:102E80004846FDF722FC0746044A054BFDF71DFAAC
:102E90000446FDF75DFCBDE8F0870000EA2E4454CF
:102EA000FB2119402DE9FF4F95B09A46884606460A
:102EB0000025EEE1252877D100242746F94A012193
:102EC000039400E0044316F8013F203B01FA03F0AD
:102ED0001042F7D130782A2811D06FF02F033078C4
:102EE000A0F13002092A16D8039A44F0020402EB3A
:102EF000820203EB42021044761C0390EFE758F87D
:102F0000042B0392002A03DA504244F40054039045
:102F100044F00204761C30782E2816D116F8010FE2
:102F200044F004042A280DD06FF02F023078A0F16D
:102F30003003092B09D807EB870302EB4303C718BB
:102F4000761CF3E758F8047B761C30786C280FD099
:102F500006DC4C2817D068280DD06A2814D104E06C
:102F6000742810D07A280FD10DE044F400140AE040
:102F700044F4801401E044F440147278824202D197
:102F800004F58014761C761C307866280BD013DC90
:102F9000582877D009DC002875D04528F6D0462877
:102FA000F4D047281AD193E118E0632835D064287B
:102FB00079D0652812D18BE1702873D008DC67289E
:102FC000F1D069286FD06E280DD06F2806D1ACE003
:102FD00073282CD0752874D0782853D0524617996E
:102FE00090476D1C54E1C4F30250022809D0032815
:102FF0000DD0D8F8001004280DD00D6008F1040899
:1030000046E1D8F80010EA17C1E90052F6E7D8F80F
:1030100000100D80F2E70D70F0E718F8041B8DF832
:10302000001000208DF80100EB46012003E058F865
:1030300004BB4FF0FF3061074FF0000102D40DE0F8
:1030400009F101018946B9420FDA8145F8DB1BF825
:1030500009100029F4D108E009F1010189468142F3
:10306000FADB1BF809100029F6D103985346A0EBB0
:10307000090721463846179A00F080FA284400EBE9
:10308000090507E044E008E10DE01BF8010B52469A
:1030900017999047B9F10109F7D2534621463846AE
:1030A000179AF2E039E00A21C4F302524FF0000B04
:1030B0000091022A06D058F8040BC117032A09D040
:1030C0000AE023E008F1070020F00702F2E802011D
:1030D000904605E000B2C117042A01D140B2C117E1
:1030E000002906DA0A460021404261EB02012D2246
:1030F00002E0220504D52B228DF80420012203E0F2
:10310000E20701D02022F7E7914657E00A2100E0CC
:1031100010214FF0000B00910BE010214FF0000B3D
:1031200044F004040827009103E008204FF0000B4E
:103130000090C4F30252022A05D058F8040B002173
:10314000032A08D008E008F1070020F00702F2E89F
:103150000201904603E080B2042A00D1C0B24FF0D1
:10316000000922072AD53278702A07D0DDF800C07E
:103170008CF0100C5CEA0B0C05D00EE040228DF8B0
:103180000420012208E050EA010306D030238DF824
:1031900004308DF8052002229146009B83F008033D
:1031A00053EA0B030AD150EA010201D1620705D5A7
:1031B00030228DF804204FF001097F1E3278582A02
:1031C00004D039A20C920CAA02920BE03BA2F9E7C0
:1031D0005B46009AFDF702FB0C9B9B5C029A521E19
:1031E0000292137050EA0102F2D1029804A9081A5F
:1031F00000F1200B600702D524F4803400E00127A1
:103200005F4502DDA7EB0B0000E0002000EB0B01A7
:10321000009003984944401A0390E00306D45346B3
:103220002146179A039800F0A9F90544002706E003
:1032300001A85246C05D179990476D1C7F1C4F45F1
:10324000F6DBE0030CD553462146179A039800F0AD
:1032500095F9054404E030205246179990476D1CBB
:103260000099481E00900029F5DC08E002980299B8
:1032700052460078491C0291179990476D1CBBF18A
:103280000001ABF1010BF1DC5BE100F065F90544F5
:10329000761C307800287FF40DAE19B02846BDE8C2
:1032A000F08F0000092801003031323334353637D1
:1032B0003839616263646566000000003031323382
:1032C0003435363738394142434445460000000022
:1032D000600700D4062708F1070020F00700F0E897
:1032E0000223804603F0004C5FEA0C0001D097A057
:1032F00009E0200501D596A005E0E00701D095A0E2
:1033000001E0AFF24C001390307823F000436528C1
:103310000CD006DC452809D046281DD047287FD18F
:103320003BE0662818D067287AD136E00021112FBB
:1033300001DB112000E0781CCDE9000104A90CA8F4
:10334000FFF7A2FCDDE90D010C9A4FF0000B07F12D
:103350000109109200914EE04FF000400097CDE936
:10336000011004A90CA8FFF78FFCDDE90D020C9BEE
:103370000F994FF0000B91461093009211B9791CF0
:1033800000EB0109B7EB090003D4C0F1FF3B07F1E3
:103390000109A9EB0700019042E0012F00DA0127A3
:1033A0000021112F01DD112000E03846CDE9000198
:1033B00004A90CA8FFF768FCDDE90D010C9A009147
:1033C0004FF0000BB946109221070FD4009A4A45DE
:1033D00003DA914601E0A9F10109B9F1010F05DD18
:1033E000109AA9F10101515C3029F4D0B84202DAF7
:1033F00010F1040F03DA0121CDE9011010E00028DB
:1034000003DC8344A9EB000102E0411C494500DDD7
:103410008946A0EB0B00401C01904FF00040029049
:10342000200705D40198484502DB4FF0FF3001909A
:1034300000208DF84B0002980DF14B07B0F1004FC2
:1034400025D002200C902B200D90029800280CDA39
:10345000404202902D200D9007E00A210298FDF7CE
:10346000A7F93031029007F8011D0C99481E0C9005
:103470000029F2DC02980028EFD1791E0D9808701F
:10348000307800F0200040F0450007F8020D11A848
:10349000C01BC01D02901398007800B1012000EB02
:1034A0000901019801EBE071029801440398401A68
:1034B000401E0390E00306D453462146179A039812
:1034C00000F05CF805441398007818B1524617993B
:1034D00090476D1CE00323D553462146179A039865
:1034E00000F04CF805441BE0BBF1000F07DB00982F
:1034F000584504DD1098179910F80B0001E0179952
:1035000030205246904701980BF1010B401E05F107
:103510000105019004D12E205246179990476D1C49
:10352000B9F10001A9F10109DEDC05E017F8010B92
:103530005246179990476D1C0299481E0290002927
:10354000F4DC53462146179A03989EE62D000000AE
:103550002B000000200000002DE9F041044600256A
:103560001E461746880404D405E039462020B0479B
:103570006D1C641EF9D52846BDE8F0812DE9F041A7
:10358000044600251E469046C80301D5302700E0BA
:103590002027880404D505E041463846B0476D1C15
:1035A000641EF9D52846BDE8F08100002DE9F84FEA
:1035B0008246504600F06CFB00900098FDF716F82C
:1035C0008346FDF782F880464FF06632064BFCF7E3
:1035D00023FF06460022054BFCF790FF0446FDF74B
:1035E000B7F8BDE8F88F000066660A400000B040FA
:1035F0002DE9FF5F83465846FDF767F80446954A74
:10360000954BFDF775F844D25846FDF75EF8934A9E
:10361000934BCDE90201FCF7FFFE804600221346E2
:10362000FDF77EF812D85846FDF74FF880468B4AD2
:103630008B4BFCF7F1FE00228A4BCDE90001FCF731
:1036400044FECDE90201FDF708F811E05846FDF708
:103650003CF8824A824BCDE90001FCF7DDFE0022F6
:10366000804BCDE90201FCF7D1FE8046FCF7F5FF67
:103670007D4951F820A05046FCF7BDFF06467B4A25
:103680007B4BFCF7C9FE0446FDF762F804B0BDE8C9
:10369000F09F5846FDF719F80446764A764BFDF739
:1036A00027F844D25846FDF710F86C4A6C4BCDE928
:1036B0000201FCF7B1FE804600221346FDF730F808
:1036C00012D85846FDF701F8644A654BCDE9000170
:1036D000FCF7A2FE0022634BCDE90201FCF7F5FDE9
:1036E0008046FCF7BAFF11E05846FCF7EEFF5B4A54
:1036F0005B4BCDE90001FCF78FFE0022594BCDE971
:103700000201FCF783FE8046FCF7A7FFC0F5C770F7
:10371000554951F820A05046FCF76DFF0646534A24
:10372000534BFCF779FE0446FDF712F8AEE7584616
:10373000FCF7CBFF0446514A514BFCF7D9FF44D26A
:103740005846FCF7C2FF454A454BCDE90201FCF75C
:1037500063FE804600221346FCF7E2FF12D858466B
:10376000FCF7B3FF3D4A3E4BCDE90001FCF754FEA8
:10377000804600223B4BFCF7A8FDCDE90201FCF797
:103780006CFF11E05846FCF7A0FF344A344BCDE9FA
:103790000001FCF741FE80460022324BFCF736FE6A
:1037A000CDE90201FCF759FFA0F5C7702E4951F889
:1037B00020A05046FCF71FFF06462C4A314BFCF771
:1037C0002BFE0446FCF7C4FF60E75846FCF77DFF7C
:1037D0008046224A224BFCF71FFE00221346CDE909
:1037E0000201FCF79DFF12D85846FCF76EFF1B4AFA
:1037F0001B4BCDE90001FCF70FFE80460022194B60
:10380000FCF763FDCDE90201FCF727FF11E0584604
:10381000FCF75BFF8046114A114BFCF7FDFD0022CF
:10382000104BCDE90001FCF7F1FDCDE90201FCF7F9
:1038300014FFC0F547700C4951F820A05046FCF722
:10384000DAFE0646094A0F4BFCF7E6FD0446FCF794
:103850007FFF1BE7F4D64354FB21F93F9CA223B919
:10386000FCAB5F400000E03F245500082D431CEBFB
:10387000E2361A3FEA2E4454FB210940320D337FD1
:103880007CD91240E2361ABF70B5044625462E4652
:103890000448A0EB6606354629462046FCF7A5FC01
:1038A00070BD0000865A375F2DE9F04F87B004469F
:1038B000211DA2A0FFF7FEF894F8FE0000287DD19C
:1038C000002521E02846FCF796FE8246A04AA14B3F
:1038D000FCF7A2FD074600229F4BFCF70FFE9F4A14
:1038E0009F4BCDE90001FCF7F0FCCDE90201FCF7AC
:1038F0002FFF81464B4600222046E16801F0B6FAD0
:10390000022000F053FD6D1CB5F5FA7FDADD20468C
:1039100000F0D8FD05904FF4FA7521E02846FCF739
:103920006AFE07468A4A8B4BFCF776FD00228A4BDB
:10393000CDE90001FCF7E2FD884A894BCDE902019F
:10394000FCF7C3FC8246FCF703FF81464B4600228E
:103950002046E16801F08AFA022000F027FD6D1E82
:10396000002DDBDA204600F0ADFD049000231A465E
:103970001946204601F07AFAC82000F017FD059894
:10398000FCF7A3FE07463A460B4676A0FFF792F8EF
:103990000498FCF79AFE07463A460B4676A0FFF7D6
:1039A00089F8DDE90410FCF71AFC8246FCF78DFE6D
:1039B00021F000410746FCF7CBFE00E073E006462D
:1039C000DDE90410FCF7E0FE08D03046FCF77DFE90
:1039D00007466E4A6E4BFCF78BFE15D2211D6DA07B
:1039E000FFF768F86079312805D14FF40071744809
:1039F000FDF744FD03E008217148FDF73FFD00207D
:103A0000206007B0BDE8F08FDDE90410FCF7BCFED4
:103A100007D2211D6BA0FFF74DF8FF2084F8FE00B0
:103A200006E0211D6EA0FFF745F8012084F8FE0096
:103A3000211D72A0FFF73EF82069FCF7CEFD31464C
:103A40000290FCF7D2FB0390FCF73FFE0746404A8A
:103A5000404BFCF7DBFC21F00041824600226B4B1F
:103A6000FCF75EFE1BD26AA0FFF724F83046FCF795
:103A70002CFE02460B46CDE9020135483549FCF7DC
:103A80003DFD07460022614BFCF71FFC8246FCF718
:103A9000E4FD206164A02169FFF70CF807E064A051
:103AA000FFF708F803E0211D63A0FFF703F80021EA
:103AB000D4F80001FCF768FE39D1654B002220469E
:103AC000E16801F0D3F94FF42F7000F06FFC20464D
:103AD00000F0F8FC824694F9FE00FCF77EFD834678
:103AE0005146FCF782FB80462169FFF7C1F8074683
:103AF000FFF7AEF9C4F80001142000F057FC211DB7
:103B000054A0FEF7D7FFD4F80001FCF7DEFD07460E
:103B10003A460B4655A0FEF7CDFF00231A4619463C
:103B2000204601F0A3F9C82000F040FC03E0211D6D
:103B300050A0FEF7BFFF012063E7000025733A2085
:103B4000416C69676E2073656E736F722E0D0A008B
:103B5000EA2E4454FB21194000407F40320D337F50
:103B60007CD912406D69645F616E676C653D252E7E
:103B700034660D0A00000000656E645F616E676C5C
:103B8000653D252E34660D0A000000007B14AE470B
:103B9000E17A843F25733A204661696C656420743C
:103BA0006F206E6F74696365206D6F76656D656EED
:103BB00074206C6F6F703232322E0D0A00000000DC
:103BC000000C014025733A2073656E736F725F6459
:103BD0006972656374696F6E3D3D4343570D0A001A
:103BE00025733A2073656E736F725F6469726563E3
:103BF00074696F6E3D3D43570D0A000025733A20EE
:103C0000505020636865636B3A2000000000E03F7D
:103C10006661696C202D20657374696D61746564DB
:103C20002070703A0000000025640D0A00000000BA
:103C30004F4B210D0A00000025733A20536B697029
:103C4000206469722063616C69622E0D0A000000B5
:103C5000E4CB964025733A205A65726F20656C65F7
:103C6000632E20616E676C653A000000252E346675
:103C70000D0A000025733A20536B6970206F666649
:103C80007365742063616C69622E0D0A0000000088
:103C900010B504460223012221460948FDF7E2F946
:103CA00001210748FDF73FFA00BF02210448FDF754
:103CB0009DF90028F9D00248FDF794F910BD0000E5
:103CC000002401402DE9FC5F04460D46FFF7A6F8ED
:103CD0008146E169A9EB0100FCF788FC07463A49F7
:103CE000FCF783FA8246C4F81C9000215046FCF78A
:103CF0004BFD08D95046FCF7E8FC07460022334B41
:103D0000FCF70EFD01D2DFF8C8A051466069FCF750
:103D10006CFA8346FCF7D9FC074688462846D4F857
:103D20000411FCF75CFA8346FCF7CFFC21F000415C
:103D30003A464346CDE90001FCF7F2FC2FD2284673
:103D4000D4F80411FCF74BFA00210090FCF71CFD9D
:103D500002D24FF0FF300CE02846D4F80411FCF7F3
:103D60003EFA00210090FCF719FD01D2012000E08D
:103D700000200190FCF731FC83466169FCF735FABD
:103D800080465146FCF731FA0746D4F80411FCF797
:103D9000D4F9C4F804016069C4F80C0104E0C4F863
:103DA00004510020C4F80C01A6682169D4F804016C
:103DB000FEF75EFF07463B4600223146204601F0F3
:103DC00055F83046BDE8FC9FBD3786350000E03F22
:103DD0006F12833A2DE9F84F04460D4621F000405A
:103DE00000917349814211DC7249884201DC06D19D
:103DF0002CB120462946BDE8F84FFEF7D4BE6E48E8
:103E0000002DCCBF6D496E49BDE8F88F6D498142E8
:103E100011DD6D498142D8BF4FF0FF366DDD204680
:103E20002946FEF757FE042808BFFEF7C7FE2046C6
:103E30002946BDE8F88F6549654F25F00045814268
:103E400033DD6449814219DD002632464FF080435C
:103E500020462946FCF739FA80468A460122204648
:103E60002946FDF743F800223B46FCF7CFFA4246CD
:103E70005346FCF743FB04460D463EE00126002274
:103E8000BA463B4620462946FCF71FFA80460F46B5
:103E90000022534620462946FCF7B8FA42463B46E4
:103EA000FCF72CFB04460D4627E04B4981421BDD05
:103EB000DFF828A102260022534620462946FCF7B7
:103EC000ABFA00223B46FCF700FA80460F46002280
:103ED000534620462946FCF799FA42463B46FCF7F2
:103EE0000DFB04460D4608E0032622462B46002023
:103EF0003B49FCF703FB04460D4622462B46104681
:103F00001946FCF789FA8B46824602460B46FCF7B7
:103F100083FA07460246334888460B460621784412
:103F2000FEF7ECFD52465B46FCF776FA82462E48D9
:103F30008B463A46434605217844FEF7DFFD3A4674
:103F40004346FCF769FA02460B46002E5046594696
:103F50000CDAFCF7BAF922462B46FCF75DFA01B001
:103F600022462B46BDE8F04FFCF753BAFCF7ADF9FB
:103F700022462B46FCF750FA1C4A7A4402EBC60351
:103F8000D3E90023FCF742FA22462B46FCF73EFA1F
:103F9000174A7A4402EBC603D3E90023FCF739FA47
:103FA000009A002AB8BF81F00041BDE8F88F0000F8
:103FB000000010440000F07F182D4454FB21F93F0D
:103FC000FB21F9BF0000DC3F0000203E0000F33F72
:103FD0000000F03F0000E63F008003400000F83F93
:103FE0000000F0BF8E1900004C190000EA18000014
:103FF000B21800002DE9F04D9446CCF1000423F0F6
:1040000000464CEA0404594F46EAD4749A4688465E
:1040100021F00042BC4206D8454240EA050442EA8B
:10402000D474BC4204D9BDE8F04D6246FEF7BEBD73
:10403000AAF14055A5F17F6555EA0C040BD0022486
:1040400004EAAA744A4DDFF82CE144EAD87452EA33
:10405000000B04D00CE0BDE8F04DFFF7BBBE002C18
:1040600014BF012CBDE8F08D022C30D0032C32D0CF
:1040700056EA0C0B0AD0BE4220D1BA4209D126F032
:10408000804622F080423346114617E000291ADBB1
:1040900025E0DFF8E4B0FB44002C04BFDBE90001BD
:1040A000BDE8F08D012C02BFDBE9000181F0004189
:1040B000BDE8F08D022C0AD0032C0CD0BA4212D1EC
:1040C000B8F1000F0BDA2A482C49BDE8F08D2846DC
:1040D0002B49BDE8F08D28467146BDE8F08D244897
:1040E0002849BDE8F08D921B12153C2AC4BF204F11
:1040F000244E10DCBAF1000FBEBF12F13C0F0027B6
:104100003E4608DB6246FCF7F9F921F00041FFF773
:1041100061FE07460E4694B1012C08BF86F00046AA
:104120000DD0194A194B022C3846314615D0FCF7F0
:104130006DF92A46BDE8F04D114BFCF767B9002236
:10414000134638463146FCF7D3FA04BF0220FEF787
:1041500053FD38463146BDE8F08DFCF757F92A4645
:10416000BDE8F04D064BFCF754B900000000F07FAD
:10417000182D4454FB2109C046180000FB21F9BF4B
:10418000FB210940FB21F93F075C143326A6A13C23
:1041900030B583B00446FEF719FD05460020CDE991
:1041A0000000024621466846FCF795FB2846FEF7CC
:1041B00023FDDDE9000103B030BD000070B51E48ED
:1041C000008800F40040002835D01C4800784128C1
:1041D00007D0422818D0482829D119A0FEF76AFC38
:1041E00025E01648401CFFF7D3FF0446FCF7B0FA61
:1041F00017490862086AFCF768FA044622460B462B
:1042000014A0FEF757FC12E00C48401CFFF7C0FF5B
:104210000446FCF79DFA12490862086AFCF755FA51
:10422000044622460B460FA0FEF744FC00BF00BF29
:1042300000200149088070BD1C0000205C000020A7
:1042400048656C6C6F20576F726C64210D0A00001A
:104250005C010020413D252E34660D0A000000005F
:104260008C020020423D252E34660D0A000000001D
:1042700070B586B005460C46164601214FF4037012
:10428000FDF78CFD4FF40040FDF75CFD072D0CDCC5
:104290000120A84080B2ADF8000000208DF8030096
:1042A00069463E48FDF716F80DE0A5F1080001212A
:1042B000814088B2ADF8000000208DF80300694607
:1042C0003748FDF707F8072C0CDC0120A04080B22E
:1042D000ADF8000000208DF8030069462F48FCF778
:1042E000F9FF0DE0A4F108000121814088B2ADF88A
:1042F000000000208DF8030069462948FCF7EAFF1A
:10430000284886421CD0072C0CDC0120A04080B23B
:10431000ADF8000000208DF8030069461F48FCF747
:10432000D9FF0DE0A4F108000121814088B2ADF869
:10433000000000208DF8030069461948FCF7CAFF09
:104340001948FCF717FE002001908DF808008DF841
:1043500009004FF4602003900020049001208DF8A4
:10436000140001A91048FCF755FE01210E48FCF786
:10437000F5FD0D48FCF7D2FE00BF0B48FCF73FFEF1
:104380000028FAD10848FCF7D9FE00BF0648FCF720
:104390001FFE0028FAD106B070BD000000080140E1
:1043A000000C0140C7CFFFFF00240140F0B50646D6
:1043B000FEF734FD054600BFFEF730FD0446AC4273
:1043C00001D3671B02E0C5F1FF30071906EB460079
:1043D000C0EBC610B7EBC00FEED3F0BD00BF011E9F
:1043E000A0F10100FBD170472DE9F041044620699E
:1043F000FCF7F3F80746D4F80411FBF7F6FE06467F
:10440000D4F80011FBF7EBFE0546FEF721FDBDE8F1
:10441000F081000070B514461D460E46002814BFFA
:1044200001210021314321F00041C1F17F6101F1FF
:10443000E041C90F16D1002C14BF012100212943EE
:1044400021F00041C1F17F6101F1E041C90F09D1C3
:104450001449B1EB460F08BF00281CD0690008BF03
:10446000002C18D03146FCF7FDFA024640F2FF70EE
:1044700030EA11500DD0F017B0EBE17F09D00846BB
:1044800065F31E0084460B4620466146FBF7C1FFDC
:104490000246104670BD0120FEF7AEFBBDE870403D
:1044A000FEF786BB0000E0FF00BF054A128802F05D
:1044B0004002002AF9D0C2B2014B1B1D1A8070477E
:1044C000003801402DE9F04F87B00446204600F047
:1044D000E9F98146D4F82401A9EB000AD4F81C01BB
:1044E000FCF789F82A4A2B4BCDE90401FBF794FF2E
:1044F00005460E465046FCF77EF821F0004107467F
:104500002A463346FCF70CF919D2D4F82001FCF7FF
:10451000DCF8CDE90401BAF1000F02DD1E491F48A5
:1045200001E01D491E480F463A460346DDE90401F5
:10453000FBF7CBFE0546FCF70BF9C4F82001C4F8E5
:104540002491D4F81C01FCF748F801904846FCF788
:1045500044F800900199FBF77AFE8346FCF7B5F822
:1045600005460D4A0E4BFBF757FFCDE90201D4F883
:104570002001FCF7AAF80746DDE90223FBF7A5FEB8
:10458000CDE90401FCF7E4F807B0BDE8F08F0000C6
:104590009A9999999999E93FEA2E4454FB2119C0B7
:1045A000FB2119402DE9F04F8BB0064689464FF0AC
:1045B0007E500790314604A800F03CF904A807C8D3
:1045C00008AB07C300210A98FCF7DEF81DD1089C50
:1045D0000998FCF77AF80746454A464BFBF71CFF5B
:1045E000CDE902010898FCF770F80746404A424BB3
:1045F000FBF712FF8246DDE90223FBF766FECDE9F9
:104600000401FCF7A5F8054635E0DDE90801FBF7F4
:1046100094FD80460A99FBF790FD07463749FBF762
:10462000E4FD834659460898FBF7D9FD8246594672
:104630000998FBF7D4FD069054460698FCF745F818
:1046400007462B4A2B4BFBF7E7FECDE9020150460C
:10465000FCF73BF80746264A274BFBF7DDFECDE982
:104660000001DDE90223FBF730FECDE90401FCF790
:104670006FF8054600BF00214846FCF785F81FD0BB
:104680004846FEF7B5FF21460690FBF7AEFD824691
:104690004846FEF7B7FA29460690FBF7A6FD834683
:1046A0005146FBF79CFD80460021FCF777F801D2CC
:1046B000012001E04FF0FF300746FBF78EFF079027
:1046C00029462846FBF791FD824621462046FBF706
:1046D0008CFD83465146FBF730FD8046FFF7D4F84A
:1046E00007460799FBF781FD0BB0BDE8F08F00008E
:1046F00047409045A779F23FA779E23FABAAAA3E8F
:104700002DE9F74F8EB00646914604A80F9900F0A8
:1047100091F804A807C80BAB07C300210D98FCF75C
:1047200033F81DD10B9C0C98FBF7CFFF07463D4A91
:104730003D4BFBF771FECDE902010B98FBF7C5FF7E
:104740000746384A394BFBF767FE8246DDE902230C
:10475000FBF7BBFDCDE90401FBF7FAFF054635E0A9
:10476000DDE90B01FBF7E9FC80460D99FBF7E5FC61
:1047700007462F49FBF739FD834659460B98FBF74F
:104780002EFD824659460C98FBF729FD06905446AB
:104790000698FBF79AFF0746224A234BFBF73CFE9D
:1047A000CDE902015046FBF790FF07461D4A1F4B1B
:1047B000FBF732FECDE90001DDE90223FBF785FDC1
:1047C000CDE90401FBF7C4FF054600BF4846FEF7EC
:1047D00019FA0A904846FEF70BFF099028460999F6
:1047E000FBF703FD074620460A99FBF7FEFC8046CF
:1047F0003946FBF7A2FC079020460999FBF7F5FC28
:10480000074628460A99FBF7F0FC80463946FBF735
:10481000E6FC0890DDE90701C6E9000111B0BDE83A
:10482000F08F000047409045A779F23FA779E23F1B
:10483000ABAAAA3EFEB505460C4614F8D80FFEF703
:10484000B5FE0746A169FBF7CAFC0646E168FBF71F
:10485000CCFC00902079FEF7A9FE0746E169FBF742
:10486000BEFC06462169FBF7C0FC0190A068D83C5D
:104870000B49884201D100200CE014F8E00FFEF74C
:1048800095FE0746A169FBF7AAFC0646E168E03CF5
:10489000FBF7ABFC02909DE8070085E80700FEBD32
:1048A000C7CFFFFF70B505466879312807D14FF6AD
:1048B000FF710120FDF7FCFAC0F30D0403E003488B
:1048C000FCF7CCFE0446204670BD000000580040B6
:1048D0002DE9F0470446FEF7A1FA0646D4F82C115C
:1048E000701AFBF783FE07461449FBF77EFC8146EE
:1048F000C4F82C6100214846FBF746FF08D948461A
:10490000FBF7E3FE074600220D4BFBF709FF01D240
:10491000DFF830902046FFF7D5FD05462846D4F84D
:104920002811FBF75CFC07464946FBF790FC8246E2
:10493000C4F828515046BDE8F0870000BD378635E1
:104940000000E03F6F12833A7CB50446206800B94E
:104950007CBD94F8FD00042803D094F8FD000328E2
:1049600000D1F5E7204600F0EDFCC4F80401204634
:10497000FFF73AFDC4F8080194F8FC0020B10128C3
:1049800003D0022855D120E058E02046D4F8081181
:10499000FFF708FE2F4948600846416804F12400EB
:1049A000FCF7B2FF2B4948600A465168D4F8100161
:1049B000FBF715FC0546294604F14800FDF706F90A
:1049C000254948600020086038E021466846D4F850
:1049D0000821FFF795FE1F48DDE9001206C00838E0
:1049E000416804F12400FCF78FFF1A49486008462B
:1049F000016804F13000FCF787FF164908600A4699
:104A00005168D4F81001FBF7EAFB0546294604F18A
:104A10004800FDF7DBF8104948600E48006880F058
:104A20000045294604F16C00FDF7D0F80A490860FA
:104A300004E0211D09A0FEF73DF800BF00BF0648B5
:104A4000D4F8083102684168204600F00FFA00BF30
:104A50007EE700003C0000203400002025733A204F
:104A60006E6F20746F7271756520636F6E74726FF4
:104A70006C2073656C656374656421001CB5FCF77C
:104A8000F3FB4FF4E13000F0B3FCA1A1A148FBF728
:104A90004BFBA1A1A148FBF747FBFDF7B3FBFDF7DB
:104AA00011FC00F081FCFCF759FE4FF47A70FFF71F
:104AB0007DFC9848001FFCF771FF9848001FFCF729
:104AC0006DFF974804210323964ACDE900109649CB
:104AD0009048001FFCF78AFE914809210523914A5E
:104AE000CDE9001090498D48001FFCF77FFE8948F2
:104AF000001FFCF7E1FE8948001FFCF7DDFE85483A
:104B0000001FFCF7E7FE8548001FFCF7E3FE814825
:104B1000001FFDF709F88148001FFDF705F88348DD
:104B20008349086007207B49091F08618148C860E4
:104B300081488860814848617A488861002081F80E
:104B4000FC0081F8FD00086207207449091F086114
:104B50007B48C860784888607848486171488861B7
:104B6000002081F8FC0081F8FD0008626948001F00
:104B7000FCF72CFF6948001FFCF728FF00221146B4
:104B80006448001FFCF768FF002211466348001FBD
:104B9000FCF762FF6BA0FDF78DFFB7E000F010FCA3
:104BA0006C49096808446B490860084600686A490E
:104BB00088421EDB0020674908606848C06880F4AE
:104BC00000506649C8605549091FD1F80401FBF738
:104BD0007CFD04460D464F49091FD1F80401FBF73F
:104BE00074FD064632460B465DA0CDE90045FDF753
:104BF00061FFFFF7E3FA5D4801684648001F00F0D7
:104C0000B9F8444A121FD2F80411444A121FD2F8CC
:104C10000401FBF7E4FA04464FF07E51FBF7E5FA96
:104C2000524908603B49091F88684FF08041FBF7F3
:104C30000EFB04464D4801682046FBF7A5FD09D24E
:104C40003449091F88684FF08041FBF700FB474952
:104C500008601CE02F48001F806880F000454FF07E
:104C600080412846FBF7F3FA044640480168204695
:104C7000FBF794FD0BD22748001F806880F00044AA
:104C80004FF080412046FBF7E2FA3849086021489E
:104C9000001FFFF759FE364801682048001F00F04A
:104CA00069F81E4A121FD2F804111A4A121FD2F8CC
:104CB0000401FBF794FA04464FF07E51FBF795FA96
:104CC0002B4908601548001F816829480068FBF7D8
:104CD00065FD05D21148001F80682549086011E074
:104CE0000E48001F806880F000442148016820467B
:104CF000FBF754FD06D20948001F806880F0004091
:104D00001B4908600548001FFFF71EFE46E700002C
:104D10004D310000600100204D3200009002002063
:104D2000C7CFFFFF000048426F12833A00004041A6
:104D3000440000209A99193F0000C0400000A041A3
:104D4000000020404D6F746F722072656164792E8F
:104D50000D0A00004C00002020A1070000100140B7
:104D6000252E32662C252E32660D0A0050000020BA
:104D70005400002070B504460D46206800B970BD8F
:104D8000204600F0F9FAC4F80C0194F8FD0005285B
:104D900067D2DFE800F003340C4E5A0094F8FC00B0
:104DA00010B93148456001E0C4F8105159E0C4F829
:104DB0001851D4F80411D4F81801FBF710FA06467C
:104DC000314604F1B400FCF701FFC4F81401D4F833
:104DD0000C11D4F81401FBF702FA0646314604F12F
:104DE0009000FCF7F3FEC4F8100194F8FC0028B919
:104DF0001D49D4F8100148600020086031E0C4F873
:104E00001451D4F80C11D4F81401FBF7E8F9064654
:104E1000314604F19000FCF7D9FEC4F8100194F873
:104E2000FC0028B91049D4F810014860002008603F
:104E300017E0C4F814512046D4F8141100F028FBF0
:104E400009494860002008600BE0C4F8185120466A
:104E5000D4F81811FEF736FF0349486000200860B7
:104E600000BF00BF00BF8AE7340000202DE9FF4FDC
:104E700097B004469146A1681898FBF78FFC01D2C1
:104E8000A0681890A06880F0004013901899FBF774
:104E900085FC03D2A06880F0004018904846A168C5
:104EA000FBF77CFC01D2D4F80890A06880F00040A9
:104EB00049461390FBF772FC02D2A06880F00049CB
:104EC00000214846FBF760FC38D018990846FBF7EC
:104ED0008CF9494611904846FBF787F910901199D3
:104EE000FBF72BF91290FEF7CFFC1390FE480168F8
:104EF0001398FBF7ACF982464846FBF7E6FBCDE991
:104F00000A011898FBF7E1FBCDE90801DDE90A2366
:104F1000FFF770F8CDE90E011A98FBF7D6FBCDE943
:104F20000C01DDE90E23FBF7D0F9CDE91001FBF709
:104F30000FFC1390FDF78CFF1A9016E0EA48016809
:104F40001898FBF784F982461A98FBF7BEFBE74AEC
:104F5000E74BCDE90E01FBF7B8F9CDE91001FBF7FE
:104F6000F7FB1390FDF774FF1A905046FBF7ADFB6B
:104F7000E04AE14BCDE91201FBF7D2FB01D2DFF8A9
:104F80007CA35046FBF7A1FBDA4ADD4BCDE91201C9
:104F9000FBF7AEFB01D2DFF86CA31A98FBF795FB89
:104FA000D94ADA4BCDE90E01FBF7A8FA0022D84B1B
:104FB000CDE91001FBF789F9CDE91201FBF76CFB94
:104FC00080465046FBF781FBCDE910011A98FBF7AC
:104FD0007CFBCDE906014046FBF71EFBCA4ACB4BE2
:104FE000CDE90201FBF718FACDE90401DDE906235A
:104FF000FBF70CFACDE90801FBF7AAFB0A90FEF7D4
:10500000F7FA0B90FBF761FBC24AC34BCDE90C01E9
:10501000FBF702FACDE90E01DDE91023FBF7FCF9FD
:10502000CDE91201FBF794FB83465046FBF74DFB9D
:10503000CDE910014046FBF7EFFA0022B44BCDE971
:105040000001FBF7E3F9B04AB04BCDE90201FBF7F1
:10505000E3F9CDE906011A98FBF737FBCDE9040126
:10506000DDE90623FBF7D2F9CDE90801FBF770FB78
:105070000A90FEF7BDFA0B90FBF727FBA54AA64B5B
:10508000CDE90C01FBF7C8F9CDE90E01DDE91023EC
:10509000FBF7C2F9CDE91201FBF75AFB1490594610
:1050A0004FF07E50FBF79BF813901499FBF797F89D
:1050B0001590B8F1070F7DD2DFE808F0C60424444C
:1050C0006486A6004FF080411598FBF7C0F8139056
:1050D00058461499FBF731F812901399FBF72DF805
:1050E00005464FF080411598FBF7B1F813901499DD
:1050F000FBF723F806464FF080411598FBF7A7F819
:105100000746A5E04FF080411598FBF7A0F85946F7
:105110001390FBF712F805464FF080411598FBF706
:1051200096F8139058461499FBF707F812901399C4
:10513000FBF703F806464FF080411598FBF787F818
:10514000074685E04FF080411598FBF780F805464B
:105150004FF080411598FBF77AF813905846149950
:10516000FAF7EBFF12901399FAF7E7FF06464FF0B4
:1051700080411598FBF76BF813901499FAF7DDFF4F
:10518000074665E04FF080411598FBF760F805464B
:105190004FF080411598FBF75AF859461390FAF7EB
:1051A000CCFF06464FF080411598FBF750F813905E
:1051B000584600E048E01499FAF7BFFF129013999F
:1051C000FAF7BBFF074643E04FF080411598FBF725
:1051D0003EF813901499FAF7B0FF05464FF080415E
:1051E0001598FBF734F806464FF080411598FBF709
:1051F0002EF8139058461499FAF79FFF12901399BE
:10520000FAF79BFF074623E04FF080411598FBF724
:105210001EF8139058461499FAF78FFF12901399BD
:10522000FAF78BFF05464FF080411598FBF70FF812
:1052300006464FF080411598FBF709F85946139040
:10524000FAF77BFF074603E000250026002700BF92
:1052500000BF607931282AD130492846FAF7C5FFC6
:105260001290FBF7E6F980B2014613904FF08040B0
:10527000FDF7AFFA29493046FAF7B7FF1290FBF76E
:10528000D8F980B2014613904FF08040FDF7A3FAA1
:1052900022493846FAF7A9FF1290FBF7CAF980B203
:1052A000014613904FF08040FDF797FA45E01B4907
:1052B0002846FAF79AFF1290FBF7BBF980B2014635
:1052C00013901748FDF785FA14493046FAF78DFF19
:1052D0001290FBF7AEF980B2014613901048FDF72B
:1052E0007AFA0E4938461DE044000020F4D64354B3
:1052F000FB21F93F105839B4C876E23F46B6133F58
:10530000C876E2BF46B613BF40AF2D3852C1F03F5A
:105310000000F03F6B6058E87AB6FB3F0000B444F1
:1053200000040040FAF761FF1290FBF782F980B2A7
:10533000014613900248FDF750FA1BB0BDE8F08F0C
:10534000000400402DE9F04104462046FFF7BAF87A
:10535000064694F9FE00FBF740F907463146FAF796
:1053600044FF0546034801682846FAF738FFBDE8C0
:10537000F0810000300000202DE9F0410446204675
:10538000FFF7A6FA0746394604F13C00FCF7BCFAE1
:10539000054694F9FE00FBF720F906462946FAF780
:1053A00024FFBDE8F081000004484FF0E02148618F
:1053B0000020886107200861704700004019010043
:1053C00070B5FDF72BFD044608480068844203D3FE
:1053D00006480068251A04E004480068C0F1FF3060
:1053E000051902480460284670BD000048000020EE
:1053F00010B586B00446012144F20400FCF7CEFC4F
:105400004FF40070ADF8140003208DF8160018203A
:105410008DF8170005A91C48FBF75CFF4FF480606E
:10542000ADF8140004208DF8170005A91648FBF705
:1054300051FF25208DF8000003208DF801008DF824
:10544000020001208DF803006846FCF735FB01944B
:105450000020ADF80800ADF80A00ADF80C00ADF87A
:1054600010000C20ADF80E0001A90848FDF7B0FAB5
:10547000012240F225510548FDF784FA0121034835
:10548000FDF74AFA06B010BD00080140003801409F
:105490002DE9F04704460D46FDF7C0FC8146E16961
:1054A000A9EB0100FBF7A2F807461B49FAF79DFE9E
:1054B0008246C4F81C9000215046FBF765F908D9D4
:1054C0005046FBF702F907460022144BFBF728F978
:1054D00001D2DFF84CA051462846FAF786FE8046F6
:1054E000D4F80411FAF729FE0746FDF7B1FCC4F819
:1054F0000401C4F80C51A6682169D4F80401FDF731
:10550000B7FB07463B46002231462046FFF7AEFC7C
:105510003046BDE8F0870000BD3786350000E03F2B
:105520006F12833A000000004F0000009E00000050
:10553000ED0000003C0100008B010000D9010000DB
:105540002802000077020000C602000015030000D8
:1055500063030000B2030000000400004F040000D9
:105560009D040000EC0400003A05000088050000DE
:10557000D60500002406000072060000C0060000E8
:105580000E0700005B070000A9070000F6070000F7
:105590004308000090080000DD0800002A09000010
:1055A00077090000C30900000F0A00005C0A000030
:1055B000A80A0000F40A00003F0B00008B0B00005B
:1055C000D60B0000210C00006C0C0000B70C000092
:1055D000010D00004C0D0000960D0000E00D0000D4
:1055E000290E0000730E0000BC0E0000050F000025
:1055F0004E0F0000960F0000DF0F00002710000084
:105600006E100000B6100000FD10000044110000F4
:105610008B110000D1110000171200005D12000074
:10562000A2120000E81200002D1300007113000008
:10563000B6130000F91300003D14000081140000AF
:10564000C414000006150000491500008B15000069
:10565000CC1500000E1600004F1600008F1600003B
:10566000CF1600000F1700004F1700008E17000024
:10567000CD1700000B180000491800008718000023
:10568000C4180000011900003D190000791900003C
:10569000B5190000F01900002B1A0000661A00006E
:1056A0009F1A0000D91A0000121B00004B1B0000BB
:1056B000831B0000BB1B0000F21B0000291C000024
:1056C000601C0000961C0000CB1C0000001D0000A8
:1056D000351D0000691D00009D1D0000D01D00004B
:1056E000031E0000351E0000671E0000981E00000B
:1056F000C91E0000FA1E0000291F0000591F0000EB
:10570000881F0000B61F0000E41F000011200000E9
:105710003E2000006A20000096200000C12000000A
:10572000EC2000001621000040210000692100004B
:1057300092210000BA210000E121000008220000AF
:105740002F220000552200007A2200009F22000034
:10575000C3220000E72200000A2300002D230000DE
:105760004F2300007023000091230000B2230000AB
:10577000D1230000F12300000F2400002D2400009D
:105780004B2400006824000084240000A0240000B2
:10579000BB240000D5240000EF24000009250000F0
:1057A000222500003A25000052250000692500004E
:1057B0007F25000095250000AA250000BF250000D8
:1057C000D3250000E6250000F92500000B26000087
:1057D0001D2600002E2600003E2600004E2600005A
:1057E0005D2600006C2600007A2600008726000057
:1057F00094260000A0260000AB260000B62600007C
:10580000C0260000CA260000D3260000DB260000C8
:10581000E3260000EA260000F1260000F72600003B
:10582000FC260000012700000527000008270000D3
:105830000B2700000D2700000F2700001027000095
:1058400010270000000000004FBB610567ACDD3F82
:10585000182D4454FB21E93F9BF681D20B73EF3F97
:10586000182D4454FB21F93FE2652F227F2B7A3C0F
:10587000075C143326A6813CBDCBF07A8807703CC8
:10588000075C143326A6913CC4EB98999999C9BF3B
:10589000711623FEC671BCBF6D9A74AFF2B0B3BF70
:1058A0009AFDDE522DDEADBF2F6C6A2C44B4A2BF30
:1058B0000D5555555555D53FFF8300922449C23F9C
:1058C0006E204CC5CD45B73F513DD0A0660DB13FD0
:1058D000EB0D76244B7BA93F11DA22E33AAD903FE2
:1058E0000000000000000000DDDDDDDDDCBBBBDD15
:1058F000DDDDDDDDDDDDDDDD988888888888888870
:10590000777777777788888885555556666666668F
:10591000666666666668888883333332222222226E
:10592000222222222228888D4859000800000020C7
:105930005C000000D82B0008A45900085C0000207F
:1059400064070000E82B00080000000001020304C7
:10595000010203040607080902040608000000000B
:105960000000000000000000000000000000000037
:105970000000000000000000000000000000000027
:105980000000000000000000000000000000000017
:105990000000000000000000000000000000000007
:0459A0000000000003
:04000005080000ED02
:00000001FF
